:0200000470107A
:1000000053544D32000000000000000000000000CA
:1000100000000000000000000000000000000000E0
:1000200000000000000000000000000000000000D0
:1000300000000000000000000000000000000000C0
:1000400000000000000000000000000000000000B0
:1000500000000000000000000000000000000000A0
:1000600000000000E0013C0100030200A08F03003B
:100070004DAE003400000000FFFFFFFF0000000055
:100080000000000000000080A0010000000000004F
:100090000000000000000000000000000000000060
:1000A0005354FFFFA0010000B302BECE49E63180E9
:1000B000FC3A8C07D3DC1C4DC97F24B95596817757
:1000C00022D55FD2C99F0985A2F789ADD37BDACC4F
:1000D00078246756696C4B610631920F4D5D2B2B6E
:1000E000173CD2E6E0A1C14E5169B97BE7F0306020
:1000F0003BB392EC79D7FB3DE7C073CC1744B7AA6A
:10010000E298E3D068206F7E22148976B3E1AF686D
:10011000D6A5176F9FB829BF16EFB563081330FD3A
:10012000E9DFBEC7BC2E90FFC03119A42292ADC535
:10013000412641DD1F6F0BDD966B36CBCC336B2335
:1001400056BCB50B9FC50E2BF102D411140B78339E
:100150006504B8EF20927BE1E43D1C846BF101E083
:100160008A0FC640234FD949FFE8D53FF954FCAC6C
:10017000A0EEC02107FBBDD43335BEDF11540EA164
:10018000B04EFA75FAF9901EDAC91C16ECB610DDFD
:10019000C93C1C1E71D15DA1E794A51BD59F41767A
:1001A0000483F12A91E3FD612E41F7DD63E41B80B6
:1001B000B54164DAEDD7ECC2BD49C6890D1F9EB3C7
:1001C000BDEE4169B20B44A3D67DB472A024F433D2
:1001D0003E6B2B27E4D64BF279CF11E207E41E33B6
:1001E000322D0520DE1504A36524460AAAFCB94970
:1001F00011229AF4E8C5AC007D86882D40F3848BEB
:1002000008409F5C0EAB277937034E8360ACA60095
:10021000FE89192D4940616A755A302365129A4545
:10022000D0A9C72B506B5521175F3BB96DA99652CA
:10023000055A32C0D00E6755D3A895FE747A278C24
:1002400000000000000000000000000000000000AE
:10025000000000000000000000000000000000009E
:10026000000000000000000000000000000000008E
:10027000000000000000000000000000000000007E
:10028000000000000000000000000000000000006E
:10029000000000000000000000000000000000005E
:1002A000000000000000000000000000000000004E
:1002B000000000000000000000000000000000003E
:1002C000000000000000000000000000000000002E
:1002D000000000000000000000000000000000001E
:1002E000000000000000000000000000000000000E
:1002F00000000000000000000000000000000000FE
:1003000000000000000000000000000000000000ED
:1003100000000000000000000000000000000000DD
:1003200000000000000000000000000000000000CD
:1003300000000000000000000000000000000000BD
:1003400000000000000000000000000000000000AD
:10035000000000000000000000000000000000009D
:10036000000000000000000000000000000000008D
:10037000000000000000000000000000000000007D
:10038000000000000000000000000000000000006D
:10039000000000000000000000000000000000005D
:1003A000000000000000000000000000000000004D
:1003B000000000000000000000000000000000003D
:1003C000000000000000000000000000000000002D
:1003D000000000000000000000000000000000001D
:1003E000000000000000000000000000000000000D
:1003F00000000000000000000000000000000000FD
:10040000000020344DAE0034D1A70134A9AE003431
:10041000D3A70134D5A70134A9AE0034D7A701343E
:10042000000000000000000000000000D9A7013417
:10043000DBA70134000000003D080034E107003470
:10044000A9AE003400000000A9AE0034A9AE00340B
:10045000A9AE0034A9AE0034A9AE0034A9AE003470
:10046000A9AE003400000000A9AE0034A9AE0034EB
:10047000A9AE003415A70134A9AE00340000000075
:10048000A9AE003400000000A9AE0034A9AE0034CB
:10049000A9AE0034A9AE0034A9AE0034A9AE003430
:1004A000A9AE0034A9AE0034A9AE0034A9AE003420
:1004B000A9AE0034A9AE0034F9A70134A9AE0034C6
:1004C00005A80134A9AE0034A9AE0034A9AE0034A9
:1004D000A9AE0034A9AE0034A9AE0034A9AE0034F0
:1004E000A9AE003400000000A9AE0034A9AE00346B
:1004F000A9AE0034A9AE0034A9AE0034DDA70134A2
:10050000EBA7013400000000000000000000000024
:10051000A9AE0034BD340034A9AE0034A9AE003415
:10052000A9AE0034A9AE0034A9AE0034A9AE00349F
:10053000A9AE0034A9AE0034A9AE0034A9AE00348F
:10054000A9AE0034A9AE0034A9AE0034A9AE00347F
:10055000A9AE0034A9AE0034A9AE0034A9AE00346F
:1007400000000000A9AE0034A9AE00340000000093
:1007500010B5054C237833B9044B13B10448AFF3FB
:1007600000800123237010BDE091033400000000DD
:1007700060F6013408B5034B1BB103490348AFF3DE
:10078000008008BD00000000E491033460F60134ED
:1007900072B61848184901F1040101604FF0E020D9
:1007A0001649C0F8081D1648016841F001010160B2
:1007B00014481249096801604FF0E0201249416174
:1007C0004FF0070101614FF00001C0F8181D4FF014
:1007D0007F41C0F81C1D0D49C0F8201D704700BFA7
:1007E00001B518F003FA00F0A3F818F05DFABDE8BF
:1007F00001407047B460043440EF04340004003416
:10080000001000E020620434FF340C000000FF40C0
:100810004FF00000324A1060EFF3148020F0040023
:1008200080F3148862B64FF080504FF0E021C1F899
:10083000040DBFF34F8FBFF36F8FFEE772B601B5A4
:1008400018F090F9BDE8014062B62648264A4FF0FC
:100850000003016891B10360EFF3098C2CE9F00FFC
:100860001EF0100F01D12CED108A204C4CF804ED35
:10087000C1F808C025680DB18D61236072B611689A
:10088000F1B1016062B64F68184C8D6907F101073C
:100890004F60256003B418F03BF903BCD1F80CC0DD
:1008A0008CF30B88D1F808C05CF804EB1EF0100F35
:1008B00001D1BCEC108ABCE8F00F8CF309887047BA
:1008C00072B61168016009B962B6F9E74FF00067C6
:1008D0004FF0E028C8F8047D62B6D4E77047000006
:1008E000F06004341C62043418620434246204345A
:1008F000026922F00702A2F144026FF002031360C2
:100900004FF0000353609360D360136153619361B0
:10091000D361136253629362D362136353634FF0E4
:10092000FF339363D1634FF0807313648260704729
:100930002249086800F101000860214B1A683AB1A9
:10094000A2F101021A601AB91E4B4FF001001860A3
:100950001D490868026822B11C4B4FF001021A6061
:1009600008E000F104001A4B1A68904201D1194BBB
:1009700018680860134B1A6812B914490868C8B19E
:1009800001B51249086808B117F0E8FC0D4B1A6868
:1009900072B117F08BFC1048016849B90F48016823
:1009A0000F4A13680F484FF08052994200D00260FE
:1009B000BDE80140BFF34F8F7047000098670434D3
:1009C00024620434946704340867043404670434EC
:1009D0000C67043410670434F06004341C6204347F
:1009E0001862043404ED00E0034613F8012B002ADA
:1009F000FBD1181A0138704790EDAD6A30B52DED76
:100A0000108B90EDA87BB5EEC06A87B08DED027BB0
:100A1000002390EDA47BF1EE10FA91ED015A91EDD7
:100A2000004A91ED02FB91ED04EB044690ED123B80
:100A300090EDAACB90ED16AB8DED047B90EDA6BBAF
:100A400080F8603009DCD0F8C832D14898474FF0C0
:100A5000FF3007B0BDEC108B30BDB8EE455B9FEDAD
:100A6000BE7BB8EE444B25EE077BB4EEC47BF1EEC3
:100A700010FA0FDD90ED1C7B9FEDB92B37EE022BAA
:100A80009FEDB97BB4EEC72BF1EE10FA37FE027B77
:100A900080ED1C7B9FEDB67B25EE075BB4EEC45B5F
:100AA000F1EE10FA10D594ED1C7B9FEDAD5B37EEA7
:100AB000457B9FEDB15BB4EEC57BF1EE10FA58BFFC
:100AC000B0EE475B84ED1C5B83EE0C8BBCEEC88BF9
:100AD000B8EE488B94F8505028EE0C8B012DB7EEF1
:100AE000C66A40F0AC809FEDA67B3FEE4E5B85EE84
:100AF00007DB3FEE0E5B85EE079BB0EECD7BB4EEE1
:100B0000C76BF1EE10FAB0EEC95B1FDBB4EEC56B3C
:100B1000F1EE10FA1ADB002384F8783094ED1A7B9A
:100B2000B5EEC07BF1EE10FA40F33481012384F876
:100B300060309DED027BB4EEC7ABF1EE10FA40F1F0
:100B40003C819DED047B3AEE07BB28E1B4EEC56B1A
:100B5000F1EE10FA0CD589EE0D5B94EDAE6AB0EEB5
:100B6000C55BB7EEC66AB4EEC65BF1EE10FAD5DA35
:100B7000F7EECA0BB7EEC70B1EF00EFCB2EE047B0D
:100B8000B7EEC00A20EE070BFCEEC87BB0EECE6BD2
:100B9000CDED017AB0EECF7BB4EEC67BF1EE10FA6C
:100BA00062DCB5EEC0EBF1EE10FA62D538EE000B68
:100BB00094ED3C7BB4EEC07BF1EE10FA03D5B0EEC1
:100BC0004BABB0EE470B94ED3A7BB4EEC07BF1EE4D
:100BD00010FA03DDB0EE4BABB0EE470B80EE0C8BA2
:100BE000BCEEC88BB8EE488B012D2CEE088B16D1CD
:100BF000B4F8E030022B3FD8DDED017AB8EE677B28
:100C000004EBC30282ED207B82ED268B04EB031202
:100C1000013382ED2CDB82ED2E9BA4F8E03094F8BA
:100C20007830012B07D0FCEEC87B17EE903A019A82
:100C300093423FF473AF012384F860306EE7B0EE67
:100C4000CF7BB0EECE5BB4EE475BF1EE10FA35FE33
:100C5000077BB4EEC67BF1EE10FA7FF65FAF9FED37
:100C60004A9BB0EE49DB83E7B5EEC0FBF1EE10FA2C
:100C70009CD538EE400B9BE794ED2A7B94EDAF6A50
:100C800038EE477BB7EEC66AB0EEC77BB4EEC67BE4
:100C9000F1EE10FA56DB94ED287B38EE477BB0EE90
:100CA000C77BB4EEC76BF1EE10FA4BDD94ED320B5F
:100CB00094ED307B39EE400B3DEE477B20EE000B90
:100CC000A7EE070B1EF030FB94EDB07AB7EEC77AB3
:100CD000B4EEC70BF1EE10FA34D5DDED017AB8EEC3
:100CE000678B84F8785094F87830002B97D11022D5
:100CF00004F1880104F180001AF0D0FD102204F103
:100D0000A00104F198001AF0C9FDD4E93023DDED0B
:100D1000017AB8EE677BC4E92C23D4E9322384ED51
:100D2000247BC4E92E23D4E9342384ED2A8BC4E93F
:100D30003023D4E9362384ED34DB84ED369BC4E9DB
:100D400032236CE794F87830012B04BF002384F839
:100D50007830C8E7AFF300809A9999999999A93F9B
:100D60007B14AE47E17A843F343333333333C33FAC
:100D7000333333333333C33F111111111111B13FE9
:100D8000CD3B7F669EA0F63F000000000000000003
:100D90009926023494F86030002B7FF4CAAE88EEB6
:100DA0000C7BBCEEC77BB8EE477B27EE0C7B84ED5B
:100DB00016BB84ED127B01204BE69DED02BBEEE7F6
:100DC00090ED1A6BB5EEC06B90ED124BF1EE10FA90
:100DD00090EDAA5BB0EE467BDFBF84EE057BBCEEF8
:100DE000C77BB8EE477B27EE057BB7EEC77B90ED60
:100DF0003C5BB7EEC74AB4EEC54BF1EE10FAC8BF84
:100E0000B7EEC57B90ED3A5BB7EEC74AB4EEC54B83
:100E1000F1EE10FA48BFB7EEC57BB7EEC75AD0F86F
:100E2000743230B580ED125B93ED005AD0EDAC7AA0
:100E3000B4EEC75AF1EE675AF1EE10FA4FF0000126
:100E4000B0F8F83075FEA77A013B8AB2934205D814
:100E5000442202FB030303F5907311E000EB8204CC
:100E6000D4ED445A77EEA55AF4EEC75AF1EE10FAD3
:100E700001F10101E9DB442303FB020202F5907357
:100E8000B5EEC06BF1EE10FAC0F8743205DC93EDEC
:100E9000007AB7EEC77A80ED127B5A6803F1380109
:100EA00042609A6803F124048260DA68C2601A69B9
:100EB000026100F138025D690C334561DD680C3078
:100EC000C5601D69A342056151F8045B42F8045BEB
:100ED000F1D1012030BD10B5044690B070B10023AF
:100EE000084C40212370C4F8C802074B6846074AE3
:100EF0001EF0E2F96846D4F8C8329847204610B090
:100F000010BD00BF00920334988E0334D9260234FA
:100F1000002814BF01204FF0FF30704780ED000A19
:100F200030B50C6844604C6884608C68C460C968E3
:100F300002F12404016100F1380115680C324561A9
:100F400052F8085C0C30C56052F8045CA24205619E
:100F500053F8045B41F8045BEFD130BD2DE9F04F4D
:100F60002DED068B0E46B0EE409BB0EE418B1D463C
:100F70000446C7B0002800F08F819FEDCBAB80ED19
:100F800012AB0020CE494FF00008C4E91601C4E9B5
:100F9000A601C4E9AA01CB49DFF85C93C4F8B012FA
:100FA0004FF07E51C4F8B4124FF07C51C4E91A8955
:100FB0000FF2FC29D9E90089C4E91C89C4E9A48994
:100FC0004FF00008C4F8B812BF49DFF83093C4F8F6
:100FD000BC124FF07F510023C4E9A88901274FF0CC
:100FE0000008C4F8C012711EDFF8149388B20428F8
:100FF000C4E9A0890FF2C029D9E9008984F86030DA
:10100000C4E9A289A4F8E03084F87830A4F87872B2
:1010100014D905234FF48071AC4A06A81EF04CF990
:10102000D4F8C83206A8984784F85070204647B0D4
:10103000BDEC068BBDE8F04FFFF7C2BE95ED007A20
:10104000B7EEC77AB4EEC70BF1EE10FA12DDD4F8A2
:10105000C8329F48984795ED007AB7EEC77A8DED74
:10106000009B8DED027B9B4A4FF4807106A81EF019
:1010700023F9D5E74FF0440C0CFB065818ED117A14
:10108000B7EEC77AB4EEC71BF1EE10FA41D5D4F82B
:10109000C8329148984798ED007AB7EEC77A8DED3F
:1010A000008B8DED027B8D4ADEE70CFB08F705EB2C
:1010B000070944372F4499ED007AD7ED007AB4EE52
:1010C000E77AF1EE10FA08F1010A00F1010021DBE4
:1010D000D4F8C8328248984797ED007AB7EEC77ABD
:1010E0008DED047BCDF808A099ED007AB7EEC77AB4
:1010F00043468DED007B7B4A4FF4807106A81EF0BD
:10110000DBF8D4F8C83206A89847012384F8503099
:101110008CE718461FFA80F84145C6D800234FF0E7
:10112000440CB01E9FB2B94239D884ED3A9B84ED8D
:101130003C8B0020A4F8F86083B2994200F10100D2
:1011400000F28B800027B84604F1FC0A04F5907980
:1011500005EB070B09EB0700442259461AF03FFE46
:10116000DBF8003008F101084AF8043B1FFA88F365
:101170009E4207F14407EBD8731E9BB2002E03F189
:10118000010314BF1A460122C4F8749204F5B27127
:10119000013A6AD1012384F85030237046E702EB0C
:1011A0008709B842D9ED007A4FEA870807F1010AAA
:1011B0001ED908F10408904498ED007AB4EEE77A5D
:1011C000F1EE10FA14D8D4F8C8324748984798ED91
:1011D000007AB7EEC77A8DED047BCDF808A099EDC3
:1011E000007AB7EEC77A3B468DED007B3F4A83E736
:1011F0000CFB07F805EB080A9AED007AB4EEE77AE3
:10120000F1EE10FA08F14408A84408DA98ED007AE3
:10121000B4EEE77AF1EE10FA03F1010382D8D4F8C4
:10122000C8323348984798ED007AB7EEC77A8DED0B
:10123000047B9AED007AB7EEC77A8DED027B99EDCB
:10124000007AB7EEC77A3B468DED007B4FF4807194
:10125000284A06A81EF030F853E702EB83073F68E0
:1012600004EB8303C3F8107166E7D4F8743291ED90
:10127000006A93ED007AB7EEC66AB7EEC77A36EE2B
:101280004A6B37EE4A7BB4EEC76BF1EE10FA48BFFB
:10129000C4F8741244317BE74FF0FF3047B0BDEC27
:1012A000068BBDE8F08F00BF000000000088B3404F
:1012B0009A9999999999B93F0000000000A06E4051
:1012C0000000F03F0000484200002F43E9260234AE
:1012D0002D270234B4270234122802349A2802340B
:1012E000F72802345B290234B3290234222A02345B
:1012F0008C2A0234E32A02340000F0BF00000840C8
:101300000000244030B5054614468DB052B9D0F8DF
:10131000C8321D489847D5F8C8321C48984720461F
:101320000DB030BD93ED042B93ED021B93ED000B3C
:101330000AAA08A906A800F02FF8DDE90823CDE9DC
:101340000223DDE90A23CDE9042301239842044660
:10135000CDE90033DFD169462846FFF74DFB012870
:10136000044603D0D5F8C8320948D7E795F860306D
:10137000012BD4D12846FFF723FD01280446CED007
:10138000D5F8C8320348C9E7692B0234CA2B0234A6
:10139000F32B0234272C0234B5EEC00BF1EE10FA19
:1013A0001FB509D4B5EEC01BF1EE10FA04D4B5EEAA
:1013B000C02BF1EE10FA0DD58DED022B8DED001B3B
:1013C00053EC102B44481AF0E5F84FF0FF3005B00D
:1013D0005DF804FB9FED327BB4EEC70BF1EE10FA23
:1013E00009DCB4EEC71BF1EE10FA04DCB4EEC72B37
:1013F000F1EE10FA07DD8DED022B8DED001B53ECA5
:10140000102B3648DFE728B189B1B2B93449354BE2
:10141000084607E071B133493148002A304A314B60
:1014200018BF1346024630481AF0B4F8CDE72C49ED
:101430002C48F2E72B490846EFE79FED1B7B9FED19
:101440001C6B21EE077BB3EE005BA0EE067B9FEDED
:101450001A6BA2EE057BA7EE065B9FED197B80ED74
:10146000005B27EE417BBBEE0A5BA0EE057B9FEDA8
:10147000165BA2EE057B27EE067B81ED007B9FEDE0
:10148000147B27EE411BB2EE047BA0EE051BA2EEFF
:10149000471B21EE061B012082ED001B97E700BFD2
:1014A0000000000000E06F400000000000A063406A
:1014B0000000000000804740000000000000703F76
:1014C00000000000008055400000000000005C406B
:1014D00000000000008059405C2C02349A2C023439
:1014E000BFFB0134BDFB0134DA2C023400000000E4
:1014F00010B5044690B060B10023074C4021237022
:10150000A065064B6846064A1DF0D6FE6846A36DE8
:101510009847204610B010BDD09403349E8E0334FB
:10152000242D0234002814BF01204FF0FF307047F3
:1015300038220A23C0E9042364232D227821C0E93C
:10154000063240F2DC5230B5C0E9081241F2707444
:1015500042F6E062C0E90A420BA5D5E90045052242
:101560004FF0000C026548F2E802C0E910C2012207
:10157000C0E90C4506A5D5E90045C0E91223C0E93C
:101580000E4530BDAFF3008000000040E17A943F8B
:10159000000000E04D62703F10B5044620B1FFF737
:1015A000C7FF0120207010BD4FF0FF30FBE72DE991
:1015B000F0410E460446002800F0E1800178012940
:1015C0000BD102210170A56CC4E90126B54208D2F5
:1015D000616C914205D9A5604CE00229F3D000204E
:1015E00049E0D4F810C0B6EE005B07EE90CAB8EE42
:1015F000676A07EE903AB8EEE77BB7EEC66A37EE59
:10160000057B86EE070B216DB7EEC00B8B424BD2EC
:10161000F0EE007AB4EEE70AF1EE10FA44D4616C11
:10162000B7EE007A8A4220D2012A134638BF01233E
:1016300007EE903AF8EEE77A67EE807AFDEEE77A09
:1016400017EE903A8B42C1BF07EE901AB8EEE76AE8
:1016500007EE902AF8EE676AC3BFC6EE267A0B46FD
:1016600080EE270AB0EE470A6360B4EEC70AF1EED7
:1016700010FA02DC0120BDE8F081B7EEC00A1CF0D0
:10168000ABFAB3EE047B20EE070B9FED3F7B20EE21
:10169000070BBDEEC00B10EE103AE26C33449342E0
:1016A000D4BFA360A260E5E7ACEB0307E16987EA7A
:1016B000E770A0EBE770884247D8606AD4F814E07E
:1016C000A1690EEB0C08984507FB01F143D207EE28
:1016D000900A9FED2F7AF8EEE77A67EE877A07EEA9
:1016E000101AF1EE676AB8EEC77AB4EEE67AF1EE58
:1016F00010FA04D5FDEEE77A17EE903A5942002928
:10170000B8D0B54232D1606C904201D800292DDAB0
:1017100002FB077707EE902A06EE907A0029B8EED2
:10172000E77BB8EEE66B1EDA94ED0E5BA5EE067B6A
:10173000BDEEC77B17EE102A236C9A42B8BF1A463B
:101740008242D4BF6260606094E7216A88422CBF05
:10175000E06AA06AB2E7ACEB0E0C9C458ADD8142E0
:10176000A8BF0146CBE794ED0C5BDFE70E44B54222
:101770003FF731AFE56CB542A8BF35462BE74FF0D8
:10178000FF3078E7AFF300800000000000408F409A
:101790009A99593F81F0004102E000BF83F0004375
:1017A00030B54FEA41044FEA430594EA050F08BFFC
:1017B00090EA020F1FBF54EA000C55EA020C7FEAC0
:1017C000645C7FEA655C00F0E2804FEA5454D4EB3D
:1017D0005555B8BF6D420CDD2C4480EA020281EA07
:1017E000030382EA000083EA010180EA020281EA3F
:1017F0000303362D88BF30BD11F0004F4FEA013191
:101800004FF4801C4CEA113102D0404261EB41019F
:1018100013F0004F4FEA03334CEA133302D0524225
:1018200063EB430394EA050F00F0A780A4F10104E1
:10183000D5F1200E0DDB02FA0EFC22FA05F280181B
:1018400041F1000103FA0EF2801843FA05F3594101
:101850000EE0A5F120050EF1200E012A03FA0EFC80
:1018600028BF4CF0020C43FA05F3C01851EBE371AA
:1018700001F0004507D54FF0000EDCF1000C7EEBC7
:1018800000006EEB0101B1F5801F1BD3B1F5001F05
:101890000CD349085FEA30004FEA3C0C04F1010424
:1018A0004FEA445212F5800F80F09A80BCF1004F4D
:1018B00008BF5FEA500C50F1000041EB045141EACF
:1018C000050130BD5FEA4C0C404141EB0101013C98
:1018D00028BFB1F5801FE9D291F0000F04BF014687
:1018E0000020B1FA81F308BF2033A3F10B03B3F159
:1018F00020020CDA0C3208DD02F1140CC2F10C02E9
:1019000001FA0CF021FA02F10CE002F11402D8BF46
:10191000C2F1200C01FA02F120FA0CFCDCBF41EA12
:101920000C019040E41AA2BF01EB0451294330BDE1
:101930006FEA04041F3C1CDA0C340EDC04F11404BE
:10194000C4F1200220FA04F001FA02F340EA030095
:1019500021FA04F345EA030130BDC4F10C04C4F1DB
:10196000200220FA02F001FA04F340EA03002946BB
:1019700030BD21FA04F0294630BD94F0000F83F405
:10198000801306BF81F480110134013D4EE77FEAE8
:10199000645C18BF7FEA655C29D094EA050F08BF34
:1019A00090EA020F05D054EA000C04BF1946104615
:1019B00030BD91EA030F1EBF0021002030BD5FEA59
:1019C000545C05D14000494128BF41F0004130BD81
:1019D00014F580043CBF01F5801130BD01F00045D5
:1019E00045F0FE4141F470014FF0000030BD7FEA48
:1019F000645C1ABF194610467FEA655C1CBF0B4643
:101A0000024650EA013406BF52EA033591EA030F59
:101A100041F4002130BD00BF90F0000F04BF002151
:101A2000704730B54FF4806404F132044FF0000584
:101A30004FF0000150E700BF90F0000F04BF0021FD
:101A4000704730B54FF4806404F1320410F0004563
:101A500048BF40424FF000013EE700BF42004FEA5E
:101A6000E2014FEA31014FEA02701FBF12F07F43DB
:101A700093F07F4F81F06051704732F07F4208BF92
:101A8000704793F07F4F04BF41F40021704730B599
:101A90004FF4607401F0004521F000411CE700BFE5
:101AA00050EA010208BF704730B54FF000050AE068
:101AB00050EA010208BF704730B511F0004502D569
:101AC000404261EB41014FF4806404F132045FEA6B
:101AD000915C3FF4D8AE4FF003025FEADC0C18BF14
:101AE00003325FEADC0C18BF033202EBDC02C2F106
:101AF000200300FA03FC20FA02F001FA03FE40EA98
:101B00000E0021FA02F11444BDE600BF7BB972B9A0
:101B10000029BEBF00204FF0004106E008BF0028AA
:101B20001CBF6FF000414FF0FF3000F0FBB9ADF18A
:101B3000080C6DE904CE002909DB002B1ADB00F04C
:101B40004DF8DDF804E0DDE9022304B070474042BF
:101B500061EB4101002B1BDB00F040F8DDF804E0F5
:101B6000DDE9022304B0404261EB4101524263EBE4
:101B700043037047524263EB430300F02FF8DDF854
:101B800004E0DDE9022304B0404261EB410170470B
:101B9000524263EB430300F021F8DDF804E0DDE995
:101BA000022304B0524263EB4303704753B94AB96E
:101BB000002908BF00281CBF4FF0FF314FF0FF3055
:101BC00000F0B0B9ADF1080C6DE904CE00F006F8F4
:101BD000DDF804E0DDE9022304B070472DE9F04FA1
:101BE000099D884604468E46002B4AD18A421746F4
:101BF0005FD9B2FA82F64EB1C6F1200301FA06FEB1
:101C0000B740B44020FA03F343EA0E0E4FEA1748F8
:101C10001FFA87FC230CBEFBF8F108FB11EE01FB59
:101C20000CF243EA0E439A4207D9FB1801F1FF3048
:101C300002D29A4200F2548101469B1AA2B2B3FB2F
:101C4000F8F008FB103300FB0CFC42EA0342944519
:101C50000BD9BA1800F1FF332CBF0124002494459E
:101C600002D9002C00F03F81184640EA0140A2EB67
:101C70000C0200211DB1F2400023C5E90023BDE89C
:101C8000F08F8B4205D90DB1C5E90001002108464E
:101C9000F5E7B3FA83F100294ED14345C0F0128134
:101CA000824240F20F810846002DE8D0C5E9004E7F
:101CB000E5E7002A00F0AC80B2FA82F6002E40F090
:101CC000BB808B1A4FEA124EBCB20121020C80B2CB
:101CD000B3FBFEFC0EFB1C3342EA034304FB0CF295
:101CE0009A420ED9FB180CF1FF382CBF4FF00109B6
:101CF0004FF000099A4203D9B9F1000F00F0EC80CF
:101D0000C4469B1AB3FBFEF80EFB183304FB08F421
:101D100040EA034294420BD9BA1808F1FF332CBFB2
:101D200001200020944202D9002800F0D18098467A
:101D3000121B48EA0C409DE7C1F120068B4008FACF
:101D400001F400FA01F922FA06F728FA06F88A40A7
:101D50001F4320FA06F3380C23431FFA87FC1C0CA0
:101D6000B8FBF0FE00FB1E8844EA08440EFB0CF8AA
:101D7000A0450ED93C190EF1FF3A2CBF4FF0010BD4
:101D80004FF0000BA04503D9BBF1000F00F0B88065
:101D9000D646A4EB08041FFA83F8B4FBF0F300FB6B
:101DA000134403FB0CFC48EA0444A4450ED93C1937
:101DB00003F1FF302CBF4FF001084FF00008A4459D
:101DC00003D9B8F1000F00F09F80034643EA0E40AC
:101DD000A4EB0C04A0FB02EC64457346E04602D37E
:101DE00007D1F14505D2BEEB02036CEB070C0138BD
:101DF000E0465DB1B9EB030264EB080404FA06F6B1
:101E000022FA01F3CC401E43C5E90064002136E705
:101E1000B1FBF2FC010C144680B2964641EA08413F
:101E20002026904640EA01431046B1FBF2F1A3EBB5
:101E3000080341EA0C414BE7B740C6F1200301FA21
:101E400006F221FA03F84FEA174E20FA03F3BCB268
:101E5000B0401343020C190C80B2B8FBFEF90EFB24
:101E6000198841EA084109FB04F8884551D97918D5
:101E700009F1FF3C2CBF4FF0010A4FF0000A8845E2
:101E800002D9BAF1000F31D0A1EB0801B1FBFEF984
:101E900009FB04F80EFB19119BB243EA01434345C9
:101EA00035D2FB1809F1FF312CBF4FF0010A4FF07A
:101EB000000A4345BBD2BAF1000FB8D1A9F1020123
:101EC0003B44B4E7841A68EB030201209646EBE634
:101ED0003A44A8F102082BE7ACF1020C3B4410E7AE
:101EE00002393B44A9E63A440238BEE6A7EB0808AB
:101EF000A9F1020C4144B1FBFEF909FB04F8C9E762
:101F0000AEF1020E3C4444E7023B3C445EE74946E6
:101F10008DE7A1EB0801CC46B1FBFEF909FB04F803
:101F2000B8E700BF704700BF0138012810B514465C
:101F300007D919F011FF09234FF0FF340360204641
:101F400010BD4FF0FF33044892B214F0F1F90028AD
:101F500018BF0024F3E700BF28ED043401207047C8
:101F600008B519F0F9FE162303604FF0FF3008BDE5
:101F700008B519F0F1FE16230360FEE770B50D46B3
:101F800014460E46731B9C4201DC204670BDAFF325
:101F9000008006F8010BF5E74FF0FF3070474FF473
:101FA000005300204B6070470120704700207047AD
:101FB00008B5012234230021064816F017FB28B18A
:101FC0002421054B054A064818F03AFC0122054B2E
:101FD0001A6008BD3095033414F90134462D0234DB
:101FE0001DF901346495033410B5EFF30582114BEC
:101FF0001B6813431DD1104C23684BB9FFF7D8FF62
:1020000023682BB933210D4B0D4A0E4818F018FCEC
:10201000EFF305831BB134210B4B094AF5E74FF071
:10202000FF310A4816F058FB18B13721084B044A13
:10203000EBE710BDBC8F0334649503347EF90134A3
:10204000582D02341DF9013491F9013430950334CF
:1020500014F9013410B5EFF30582104B1B681343DC
:102060001BD10F4C23684BB9FFF7A2FF23682BB994
:1020700044210C4B0C4A0D4818F0E2FBEFF30583AA
:102080001BB145210A4B084AF5E70A4816F062FBE6
:1020900018B14821084B044AEDE710BDBC8F03344A
:1020A000649503347EF90134362D02341DF9013470
:1020B00091F901343095033414F9013430B5134DDE
:1020C0006B69DB031FD50A1A002A1CDD00F01F0311
:1020D0001A44BFF34F8F8418C2431B1A0B44224487
:1020E000203B5209203302F1010ED8BF4FF0010E00
:1020F0004EF001E0C5F85C0220300FF005C8BFF3D8
:102100004F8FBFF36F8F002030BD00BF00ED00E0A8
:1021100030B5134D6B69DB031FD50A1A002A1CDD8D
:1021200000F01F031A44BFF34F8F8418C2431B1AD9
:102130000B442244203B5209203302F1010ED8BF48
:102140004FF0010E4EF001E0C5F8680220300FF0AC
:1021500005C8BFF34F8FBFF36F8F002030BD00BFA6
:1021600000ED00E00248034B036009F083B900BFB3
:102170006895033400FC0D5810B5034C204609F057
:1021800045F90228FAD010BD689503340A1A0146B1
:10219000014809F093B900BF6895033438B50C467F
:1021A0001B4B0168994204D01A4819F05BFA0020D1
:1021B00010E0C3680BB91848F7E7C518C058174BAB
:1021C000984201D01648F0E76B6824B90AB102338F
:1021D0001360012038BD610701D01248E5E70AB954
:1021E0001148E2E71268991C8A4203D20F4819F09D
:1021F000D1F9DCE7206044F8043F23F04043043584
:102200000133013BE5D055F8042F44F8042FF8E7DB
:102210002000BFECA0F90134CAF901347A7A05CA6A
:1022200002FA01343AFA01348AFA0134E2FA01344A
:1022300008B50268064B9A4204D0064819F012FA13
:10224000002008BD4368002BFAD01844F9E700BF0E
:102250002000BFECA0F90134F8B5069D0C4620B96A
:10226000154819F0FFF9002007E02968994203D0CA
:102270000168914202D82B600120F8BD0C214A432D
:10228000083281184968825811F0030603D00B48C0
:1022900019F080F9E7E708440132013AEBD050F831
:1022A00026102F680231A3EB070C54F82170013679
:1022B000674444F82170F0E766FB0134C5FB013444
:1022C00010B5A34B88B01A780AB901221A70A14B35
:1022D0001A6842F002021A6001221A604FF0FF32BF
:1022E0009A60DA6000221A6103F5A0435C68002C52
:1022F000FCD045F20103A2B29A4240F09280964B84
:102300005C68002CFCD045F21713A2B29A4240F050
:10231000B080924B5C68002CFCD041F21C13A2B23E
:102320009A4240F0CC808E4B5C68002CFCD041F28D
:102330001A03A2B29A4240F0E6808A4B5C68002CF5
:10234000FCD041F21B13A2B29A4240F02D81864B81
:102350005C68002CFCD041F61923A2B29A4240F0EE
:102360004781824B5C68002CFCD041F22113A2B261
:102370009A4240F062817E4B5C68002CFCD043F2B4
:102380002023A2B29A4240F07C81724B5C68002C00
:10239000FCD041F21F23A2B29A4240F09881754BC3
:1023A0005C68002CFCD041F21E13A2B29A4240F0AD
:1023B000B481714B5C68002CFCD0A3B2B3F5B05F64
:1023C00040F0CF816D4A5468002CFCD045F21D03CB
:1023D000A1B2994200F0EC8119F0BEFC0368002B19
:1023E00000F0E48119F0B8FC006819F05FFC0346C6
:1023F00005220021CDE905211D220492C4F3032208
:102400000392C4F3033202925D4AE4B25D49009242
:102410005D48FB22019419F0BDF8FB215B4B5C4A3F
:1024200022E019F099FC03680BB319F095FC0068E1
:1024300019F03CFC034605224FF0000ECDE9052EB5
:1024400001220492C4F303220392C4F303320292E2
:10245000504AE4B24B4900924B48C722019419F00C
:1024600099F8C721494B4A4A464818F0E9F94A4BBE
:10247000E1E719F071FC0368FBB119F06DFC00682D
:1024800019F014FC034605224FF0010CCDE9052C90
:1024900017220492C4F303220392C4F3033202927C
:1024A0003E4AE4B2374900923748CA22019419F0F3
:1024B00071F8CA21354B364AD6E7374BE3E719F0B6
:1024C0004BFC0368EBB119F047FC006819F0EEFB18
:1024D00003460122CDE905221C220492C4F3032203
:1024E0000392C4F3033202922D4AE4B225490092CA
:1024F0002548CE22019419F04DF8CE21234B244AD1
:10250000B2E7254BE5E719F027FC0368F3B119F0B2
:1025100023FC006819F0CAFB034601220020CDE924
:1025200005201A220492C4F303220392C4F3033257
:1025300002921C4AE4B2134900921348D222019439
:1025400019F028F8D221114B114A8DE7124BE4E71C
:102550007495033400000E5800F00E5800B00F5868
:1025600000700F5800500F5800300F5800E00F58FF
:1025700000D00F5800100E5800400E5800200E5882
:1025800027FD013403FC013472FC0134950102344F
:10259000662D0234D6FC0134FEFB0134DDFC01342F
:1025A000E5FC0134EAFC013419F0D6FB0368EBB119
:1025B00019F0D2FB006819F079FB03460122CDE93E
:1025C00005221B220492C4F303220392C4F30332B4
:1025D00002927C4AE4B27C4900927C48D622019463
:1025E00018F0D8FFD6217A4B7A4A3DE77A4BE5E7D7
:1025F00019F0B2FB0368F3B119F0AEFB006819F0F3
:1026000055FB034601220A21CDE905211922049236
:10261000C4F303220392C4F3033202926F4AE4B27A
:10262000694900926948DA22019418F0B3FFDA216F
:10263000674B684A18E7684BE4E719F08DFB0368BD
:10264000EBB119F089FB006819F030FB0346012259
:10265000CDE9052221220492C4F303220392C4F39C
:10266000033202925E4AE4B2574900925748DE2292
:10267000019418F08FFFDE21554B564AF4E6564B75
:10268000E5E719F069FB0368FBB119F065FB006829
:1026900019F00CFB034603224FF0020ECDE9052E84
:1026A00020220492C4F303220392C4F30332029261
:1026B0004C4AE4B2444900924448E222019418F0A2
:1026C00069FFE221424B434ACEE6434BE3E719F070
:1026D00043FB0368FBB119F03FFB006819F0E6FA11
:1026E000034601224FF0020CCDE9052C1F22049273
:1026F000C4F303220392C4F3033202923A4AE4B2CF
:10270000314900923148F522019418F043FFF52138
:102710002F4B304AA8E6304BE3E719F01DFB036866
:10272000EBB119F019FB006819F0C0FA0346012259
:10273000CDE905221E220492C4F303220392C4F3BE
:1027400003320292294AE4B21F4900921F48F7223D
:10275000019418F01FFFF7211D4B1E4A84E61E4B03
:10276000E5E719F0F9FA0368F3B119F0F5FA006832
:1027700019F09CFA034601220620CDE9052000222B
:102780000492C4F303220392C4F303320292184A60
:10279000E4B20D4900920D48F922019418F0FAFEB6
:1027A000F9210B4B0B4A5FE60B4BE4E70A4B1FE6A4
:1027B0000123002013600F4A1360A2F5005213603A
:1027C00008B010BDF0FC013403FC013472FC01348C
:1027D00095010234662D0234FEFB0134F6FC01340F
:1027E000FCFC013406FD01340DFD013415FD0134FE
:1027F0001DFD013400300E580020074B186003F512
:102800008053186003F580531860A3F54053986017
:10281000D86018611860704700100E5830B5012458
:102820000025012354EA0D05034A834011694B40FA
:1028300023404B40136130BD00000E58002810B5F6
:102840000C460EDC1930FFF7E9FF2379084A03F044
:102850000103DB001360236813F0070004D19360C9
:1028600010BD4FF0FF30FBE76FF00100F8E700BF4D
:1028700000E00F5830B50124002554EA0D05034A45
:10288000136923EA0403136130BD00BF00000E5832
:10289000EFF3108172B6034A13680133136081F3BA
:1028A00010887047F0600434002300B589B007AA8F
:1028B000009219461A46CDE90333CDE9013316F0EB
:1028C000CDF828B19021044B044A054817F0B8FF11
:1028D000079809B05DF804FB2DFD0134782E023411
:1028E00041FD013407B501AA16F0D4F828B19B21A7
:1028F000034B044A044817F0A3FF03B05DF804FB40
:102900002DFD01345A2E023441FD013408B50A4B25
:102910001A682AB96921094B094A0A4817F090FF39
:10292000EFF3108172B61A68013A1A6081F31088C9
:10293000BDE8084015F0EEBAF0600434BDFD013486
:10294000442E023441FD0134002208B511463423DF
:10295000154815F04BFE024628B13D21134B144A91
:10296000144817F06DFF01462023134815F022FF8D
:10297000024618B142210D4B0D4AF1E701462023D2
:102980000E4815F017FF014618B14721074B084ABA
:10299000E6E7342301220A4815F028FE18B14C213D
:1029A000024B034ADCE708BDF8950334DCFD013433
:1029B000C12E0234ECFD0134D8950334AC950334B8
:1029C0007895033408B5114815F068FE28B17D21CB
:1029D0000F4B104A104817F033FF104815F03AFF1C
:1029E00018B181210A4B0B4AF4E70D4815F032FF6C
:1029F00018B18521064B074AECE70A4815F04EFE50
:102A000018B18921024B034AE4E708BDF895033465
:102A10002DFD0134AE2E023441FD0134D89503342E
:102A2000AC950334789503342DE9F843FFF730FF74
:102A300015F0F4F80446A8B1DFF8D080274F284DF0
:102A40000021404615F048FE81462046FFF72CFF46
:102A50000646B9F1000F12D13B684BB17421214BEE
:102A6000214A02E06821214B1F4A214817F0E8FE65
:102A7000204B3C601860BDE8F843FFF747BF38685B
:102A800018B980211C4B184AEFE7FFF70DFFB04241
:102A900009D93868A04203D18621184B124AE4E7CD
:102AA0003146FFF71FFF2B6801332B60FFF72EFF26
:102AB0004FF0FF31124815F0EBFE18B19221114B87
:102AC000094AD2E7FFF7E4FE2B681BB999210E4BA8
:102AD000054ACAE72B68013B2B60B1E7D495033464
:102AE000CC9503348DFE0134932E02346EFE0134F6
:102AF000ECFD0134D0950334B1FE0134D5FE013430
:102B0000D8950334DCFD0134FBFE0134F895033421
:102B100030B52B4885B0FFF7BBFE15F01BFE28B182
:102B2000AE21284B284A294817F08AFE15F076F87E
:102B3000274C2368834203D0B221264B224AF2E776
:102B4000FFF7B2FE244D2968884202D02068FFF7C3
:102B5000C9FE0023214823602B601946CDE90033CC
:102B600003AA15F0B5FE20B1A2211D4B1D4A1E4837
:102B7000DAE7039B012B03D9BC211C4B124AD2E795
:102B80001B4A126882B1A3B9144815F0B3FE18B1FC
:102B9000B321134B174AEAE7104815F0B7FE40B1CE
:102BA000C821084B084ABEE705B0BDE83040FFF732
:102BB000ADBEFFF7ABFE05B0BDE8304015F08ABFF3
:102BC000F8950334DCFD0134272E0234ECFD01348A
:102BD000D49503340FFF0134D0950334D8950334D2
:102BE0002DFD0134162E023441FD01343FFF013426
:102BF000CC950334F52D023408B54FF0FF3105486C
:102C000015F06AFD28B1E221034B044A044817F08D
:102C100017FE08BD78950334DCFD0134DE2D023447
:102C2000ECFD013408B50A4815F088FD28B1A9214A
:102C3000084B094A094817F003FE054815F08AFDBC
:102C400020B1EE21064B074A0748F4E708BD00BF54
:102C5000789503342DFD0134A82D023441FD013453
:102C6000DCFD0134C52D0234ECFD013408B54FF014
:102C7000FF31064815F00CFE30B140F21511044B3F
:102C8000044A054817F0DCFD08BD00BFAC950334CD
:102C9000DCFD0134922D0234ECFD013410B5EFF36C
:102CA000108472B6064815F031FE84F3108830B1F6
:102CB0004FF49671034B044A044817F0C1FD10BD50
:102CC000AC950334DCFD0134732D0234ECFD01348A
:102CD00010B5044628B92F21104B114A114817F09E
:102CE000AFFD03681BB930210F4B0D4AF6E700F02A
:102CF00015FA204600F0D0F9204600F08DFA0128A0
:102D000002D1FFF7B3FFF7E70228F5D1204600F024
:102D1000E7F9BDE8104000F04DBA00BF57FF01349D
:102D2000D82E023477FF0134EEFF013410B504468B
:102D300010B3036803B3DB69984700236060A060A9
:102D4000E360236163616368A3B91A46626200228B
:102D5000E36AA2622276E26184F8202063B1214610
:102D6000BDE810400420184714330132198A0907BE
:102D7000FAD5EBE70122F9E710BD000008B5074BD3
:102D80001B682BB97521064B064A074817F058FDFA
:102D9000064B1860C043064B586208BD3496033496
:102DA00017000234892F0234410002343096033474
:102DB00000100E5808B5038A5B0706D440F22F2195
:102DC000034B044A044817F03BFDC06808BD00BF30
:102DD000B80002346A2F0234D300023408B50B4B1A
:102DE0001A68824205D04221094B0A4A0A4817F064
:102DF00027FD0A4A12681AB14621094B054AF5E730
:102E00001A60BDE80840FFF783BE00BF3496033464
:102E10004F0102343630023441000234309603341C
:102E20007B010234CB6A70B505460C4613B10246ED
:102E3000022098472B8A580718D52846FFF7BAFF73
:102E400028B1C221254B264A264817F0F9FC022258
:102E5000254B1A601A689107FCD44FF080421A6023
:102E60001A685200FCD41920FFF704FD6B680BB1FF
:102E7000284698472E8A16F0900F0AD116F0C00FF8
:102E800024D11A4B1B68A34218D1ED21184B144AC8
:102E9000DAE7164B1B68A34203D0E121154B104A19
:102EA000D2E70020FFF76AFFF306E7D52046FFF7D9
:102EB00095FF2B8A03F0C003002BE2D0E36A63B1D5
:102EC0002A462146BDE87040032018472369002B9D
:102ED000F4D1E368002BF1D1E8E770BD970102342B
:102EE0004B2F0234A001023400E00F583496033413
:102EF000410202341702023408B528B9F8211A4BEE
:102F00001A4A1B4817F09CFCC3691BB1FA21194BE4
:102F1000164AF6E7C36813B3036923B14FF481710E
:102F2000154B124AEDE74368036183684361436AC6
:102F30008362C3684360C368836083686BB91A4661
:102F400000234262C360002380F8203008BD1433A0
:102F50000132198A0907FAD5F2E70122F9E7436835
:102F600014334360EFE700BFAF020234262F023470
:102F7000A0010234CA020234FA020234704700008F
:102F800038B5044600285BD02E4B034007D0594289
:102F900019402D4B0A03D2582C4818F0FBFAC4F301
:102FA000090313B12A4818F05DFB14F4700F02D026
:102FB000284818F057FBE50102D5274818F052FBC6
:102FC00014F0C06F0ED0254818F04CFB244B0021A4
:102FD0001A69244818F0DEFA234B01211A692148A6
:102FE00018F0D8FA200102D5204818F03BFB610008
:102FF0000CD51F4D1F48E96818F0CCFA296A1E4805
:1030000018F0C8FAE9691D4818F0C4FAA20002D500
:103010001B4818F027FBE30002D51A4818F022FBE2
:10302000FFF7ACFF2246002340F24A31164818F061
:10303000B1FA40F24E31154B154A164817F000FC14
:1030400038BD00BF00FC0F003C500E583B0302345B
:10305000680302348E030234B2030234D203023412
:1030600000200E58EA03023400300E58FF030234E9
:1030700000E00F58170402344B0402347504023484
:1030800096040234B7040234D204023495010234A7
:10309000022F0234A001023410B50446B0B1036817
:1030A000A3B15B6833B94FF4D371094B094A0A489D
:1030B00017F0C6FB984720B940F2A911074B054A03
:1030C000F5E72046BDE81040FFF730BE10BD00BF59
:1030D000F90402344C300234A00102342E050234CB
:1030E00010B50446B8B1C36A1BB1014600220520E1
:1030F0009847094B1B68A34202D12046FFF76EFE9A
:1031000000236360A360E360236163616362A36281
:10311000E36184F8203010BD3496033410B5FFF716
:10312000CFF80222204B1A601A689107FCD44FF0A6
:1031300080421A601A685200FCD440F2FF325A6191
:103140004FF0FF325A621A6842F001021A60FFF72C
:10315000FBFB4FF40012154BC3F88420BFF34F8FD5
:10316000BFF36F8F4FF48001C3F88410BFF34F8F0C
:10317000BFF36F8F4FF40001C3F88410BFF34F8F7C
:10318000BFF36F8F4FF08071C3F88410BFF34F8F80
:10319000BFF36F8F5A60064B1B681BB1BDE8104030
:1031A0000620184710BD00BF00100E5800E100E0D7
:1031B0002C96033408B5164B1B680BB107209847B3
:1031C0004FF40012134BC3F88420BFF34F8FBFF3AB
:1031D0006F8F4FF48002C3F88420BFF34F8FBFF38B
:1031E0006F8F4FF40002C3F88420BFF34F8FBFF3FB
:1031F0006F8F4FF08072C3F88420BFF34F8FBFF3FF
:103200006F8FFFF7DFFBBDE80840FFF7F5BA00BF9F
:103210002C96033400E100E073B5044630B94FF456
:1032200010718D4B8D4A8E4817F00AFB436823B905
:1032300040F243218B4B894AF5E7037E8BB9036843
:103240000BB19B6823B940F25521874B834AEAE7CB
:10325000984720B940F25921844B804AE3E7012383
:1032600023766068038A5A0712D5FFF7A3FD01236E
:1032700003FA00F094F8203003F0FF0643B300286F
:1032800036D0E36930EA030304D0012002B070BDF8
:10329000C068EFE7764B1B68A34204D040F271216F
:1032A000744B6E4ABFE74FF40011734AC2F88410A2
:1032B000BFF34F8FBFF36F8FE36923EA0003E3612E
:1032C000516060682146FFF7ADFD2046FFF714FE10
:1032D00063681B8A1B0734D52369002B00F0BA8072
:1032E000634B1A6832B99721644B654A65489BE77E
:1032F0000646EDE76268128A160703D49821624BEE
:103300005F4AF3E72269128A550603D49A215F4B7C
:103310005B4AEBE71868FFF761FDE3681BB1A32187
:103320005B4B574AE2E7226962606269A260A26A67
:10333000626223616361A362636814336360002087
:10334000A4E7002EFBD194F82030002B6CD1012390
:1033500084F820306568E3681BB161214C4B4D4A0D
:1033600061E7E36A1BB12A462146304698472B8A1B
:10337000D80705D5E2691AB15621474B474AB5E748
:1033800013F0500F17D03A4E33689C4203D13121CD
:10339000434B444AAAE7FFF747FB33681BB135218B
:1033A000414B404AA2E7414B1B681BB13921404BBE
:1033B0003C4A9BE734602B8A59071CD413F0900FCA
:1033C0000AD02B4B1B689C4203D07821294B314AF1
:1033D00029E7E868FFF7D2FC2B680BB1284698472D
:1033E0002B8A5A071AD52846FFF7E4FC30B1A421EE
:1033F000304B284A17E740F2FF30EBE79DF80420F6
:10340000AB6860F3000269468DF804200093FFF773
:1034100015FA294A136843F001031360E36A1BB1EC
:103420002A462146012098476068038A5B070FD52A
:10343000FFF7C0FC012303FA00F000287FF425AF5A
:1034400060682146FFF7EEFC2046FFF755FD76E762
:10345000C068F2E7022019E7AF0202341D300234DF
:10346000A001023437050234720502342E050234FD
:1034700034960334D405023400E100E0170002342E
:10348000F62F023441000234FE0502349A0602345B
:10349000E6060234D52F0234CA020234B62F0234B3
:1034A0001E070234A22F023446070234309603343A
:1034B0007B0102349701023400E00F58F8B5394B14
:1034C000394C9D68236843B323685B6833B940F285
:1034D000B131364B364A374817F0B2F923685B688A
:1034E0001B8A5B070CD425F47F7020F00300FFF7E4
:1034F00047FD23689BB940F2D2312F4B2C4AEAE7B3
:1035000023685868FFF756FC20B140F2BE312B4BC0
:10351000274AE0E725F08050E9E72846E7E72368F7
:103520005B681B8A13F0040326D122685268D268B4
:103530002A4017D04FF0010C0A202168204EC9699B
:1035400022FA03F7FF0707D51F0357F806E047F8ED
:1035500006E00CFA03F73943013803F10103EFD118
:103560002368D961BFF34F8F0E4B1D61BFF34F8F9F
:10357000BDE8F840FFF792BB23685868FFF71AFCD4
:1035800020B140F291310D4B0E4AA4E7EB00E9D592
:103590000D4BDA68DA602368DB69226843F00103C7
:1035A000D361DFE700100E583496033470070234FD
:1035B000162F0234A001023417000234970102349E
:1035C0003C500E58E82E023400E00F5890F82C3092
:1035D000474A002B474B18BF134610B5C4B00A9397
:1035E00043694FF082740B93836ACDE90C33424BED
:1035F0000E93036C0F93436DCDE9103390F8843034
:10360000002B0CBF0222042242F00102ADF8102070
:10361000C26E04ABADF81220D0F88020229306923F
:10362000D0F8AC200369079206AA059240F2014245
:103630001293C368CDE9234213938368416A1493BC
:103640001691016A43681791C169159312AB2593CE
:10365000189140F2024381692B92199116A9279182
:103660000AA928910021C26B26931A92826BCDE998
:1036700029141B92426B1C92026B1D921AAACDE96F
:103680002C23036D22AA1E93C36C1F93836C00929C
:103690002093436C29AA21931EAB2E930EAB2F933C
:1036A000042308930123CDE93A13389301ABCDE904
:1036B0003C3102ABCDE93F3103ABCDE9423138AB10
:1036C00009930E4B019231A81C223E910291419127
:1036D00003913093CDF8E4D018F0FAF8084B30A8F5
:1036E000359308AB36931AF0E9FF44B010BD00BF24
:1036F00040048408400404084010820007010100CF
:10370000BDE6013400204870704700207047032355
:1037100043700020704743780BB1032343700020AF
:1037200070470000F7B5044601F06CF990F854308A
:10373000074613B9002003B0F0BD204601F01AF986
:103740001E4B1A688242F5D01D4D186095F9003065
:103750005A1C002B2A700ADB6946204600F009FF3C
:103760000028E8D1174A019B11680B44136095F9B2
:1037700000200A2ADED1134E3368B3FBF2F3BA6D90
:103780003360934212D99DF8013013B1013B8DF89B
:1037900001300123694620468DF8003000F0CEFE4E
:1037A0000028C8D1FF2330602B70C4E7F1D29DF808
:1037B0000130052BEDD80133E9E700BF9C980334B5
:1037C0009898033494980334F8B50D46044601F0F4
:1037D00019F906460F48FDF78BFE0F4F386030B1E0
:1037E000FDF7DAFE012804D03868FDF79BFEBE2005
:1037F000F8BD0020F26E3B681A61D4F880201A648C
:10380000D4F884205A64A26F9A64E26FDA64687014
:10381000EEE700BF31380034A898033408B5034BF5
:10382000186808B1FDF77EFE002008BDA898033493
:1038300008B517F0AFFEBDE80840014817F012BF09
:103840003C090234F0B587B005460C4601F0DAF8C1
:10385000034690F8680028B16278012A04D9032A47
:1038600012D0002007B0F0BD012304210226CDE9CB
:10387000013122462846254B2549009601F006FBDA
:103880000028EFD16670EDE7224EDB6E32682846E5
:1038900013611E4B04A993F8377001F030F800282B
:1038A000E0D1284605A901F047F80028DAD1DDE982
:1038B00004123B463068FDF77AFE01280CD0012344
:1038C00004220226CDE90132284622460F4B104938
:1038D000009601F0DBFAD5E73368049A9B689A42B8
:1038E0000CD13368059A5B689A42E8D0284605A94E
:1038F000059301F012F80028E1D0B3E7284604A9A7
:10390000049300F0EDFF0028EBD0ABE71C980334E4
:103910000F370034A898033410B506480C46FDF75D
:10392000DAFA054B186010B10020607010BDBE209F
:10393000FCE700BF31380034A498033408B5034BCA
:10394000186808B1FDF7E4FA002008BDA498033414
:1039500008B52DED028B08EE101A012101F014F8C4
:1039600090B1DFED0F7AB8EE488A88EE270A9FED16
:10397000081BB7EEC00A1AF017FA9FED077B20EE7E
:10398000070BBDEC028B08BDB8EE480BF9E700BF92
:10399000175D74D14517DD3F0000000000E06F4067
:1039A00000007F43000000002DE9F0438BB00E467D
:1039B000694615461C4600F03DFF0246002840F0CF
:1039C00096809DF80030012B40F09180019BD91723
:1039D000A3FB063706FB017702994FEAE17CA1FBC6
:1039E000051005FB0C005B1847EB000703984FEA36
:1039F000E07CA0FB040104FB0C111818049B41EBB4
:103A00000701DF17A3FB068306FB0733059FA7FB10
:103A100005CE4FEAE77905FB09EE18EB0C07DDF858
:103A200018C043EB0E034FEAEC7EACFB04C804FB6A
:103A30000E8817EB0C0748EB0308079B4FEAE37C63
:103A4000A3FB06E306FB0C3C089B4FEAE379A3FBD0
:103A5000053605FB09651EEB03034CEB050C099DC0
:103A60004FEAE57EA5FB045604FB0E665C194FF099
:103A7000FF33294D46EB0C06A84271EB03033FDBF5
:103A800023A3D3E90023FEF741F8B0F5807F71F15D
:103A90000001814601DB4FF0FF094FF0FF33AF42D9
:103AA00078EB03032EDB1AA3D3E900233846414603
:103AB000FEF72CF8B0F5807F71F10001074600DBBE
:103AC000FF274FF0FF33AC4276EB03031CDB10A360
:103AD000D3E9002320463146FEF718F8B0F5807F81
:103AE00071F10001044600DBFF244E463D46129B67
:103AF0001E60139B1D60149B1C600BB0BDE8F0831F
:103B00009146CAE70027DCE70024EEE7AFF3008028
:103B100000E1F50500000000011F0AFA00000000A6
:103B20002DE9F0472DED028B00249EB006460F468E
:103B3000CDE90744099400F065FF90F87020054630
:103B4000C34B32B91A7000201EB0BDEC028BBDE829
:103B5000F087197811B1FF2A40F0B18000227A7005
:103B60000122BC4985F870200A701A7000249FED6C
:103B7000BA8ADFF8F092DFF8E8A205F58878D8F87D
:103B80000400002800F0AA805CB1D8F8003003EBF4
:103B9000430303449B0807EE903AF8EEE77A49EDB9
:103BA000017AD8ED067AF8EE677A87EE887AD8ED52
:103BB0000B7AF8EE677A8DED0E7A87EE887AD8ED7B
:103BC000107AF8EE677A8DED0F7A8DED107A87EE28
:103BD000887A242314A98DED117A4FF0030C0A463C
:103BE00003FB0453D3ED597AF8EEE77A87EE887A2F
:103BF000D3ED5A7AF8EEE77A81ED007A87EE887A8B
:103C0000D3ED5B7AF8EEE77A81ED017A87EE887A78
:103C1000BCF1010C81ED027A03F10C0301F10C01FE
:103C2000E0D107EE900A4420B8EE670A00FB04A03A
:103C300007AB0EA90134FDF771F9052C08F1040852
:103C400009F104099BD105EB840393ED441A95ED2A
:103C5000450A824DB8EE411BB8EE400B804B814ABD
:103C60002868A1B2FDF77AF9012840F0A6800FF28A
:103C7000D019D9E90089B0EE007B9FED736B4FF04E
:103C80007E52032C98BFB0EE467B2B68C3F8B82257
:103C9000754A83EDA87BC3E9A689C3F8B42205233E
:103CA000CDE9010302243A463046704B7049009436
:103CB00001F0ECF800287FF447AF7C7044E77B7894
:103CC000032B10D03FF63FAF002B3FF44FAF012B3B
:103CD0007FF439AF0522CDE90132E3E79620002CCD
:103CE0003FF432AFAFE706AB029305AB01935F49F8
:103CF00004AB009391F8363091F83520304691F8B6
:103D00003410FFF751FE30460499FFF721FE30468C
:103D100005998DED0E0BFFF71BFE304606998DEDD4
:103D2000100BFFF715FEDFF8348101222146D8F889
:103D300000000EAB8DED120BFDF7E4FA01283AD12D
:103D4000DFF83491D8F80030D9ED007A93ED126B9A
:103D5000B8EE677BB4EE476BF1EE10FA3D4B02D143
:103D60001A78012A16D14FF0000A83F800A0052323
:103D700005F5887292ED017AB8EE477BB4EE476B99
:103D8000F1EE10FA02F1040219D0013B0AF1010A26
:103D9000F0D19624012305220225CDE901323046D7
:103DA0003A46324B3249009501F070F8002C18BFAA
:103DB00020467D70C8E6BE24ECE7BE20C4E60123A1
:103DC0004FF0040E8DF8503024234EF001E003FB39
:103DD0000A5315AA03F5B2731446186859680833D4
:103DE00003C422460FF009C0186814A920603046A9
:103DF00000F098FC04460028CCD1012305EB8A058D
:103E00008DF82830D5F8283130460B93D5F83C3161
:103E10000AA90C93D5F850310D9300F0E9FB044644
:103E20000028B7D1D8F8003093ED127BBCEEC77BE9
:103E3000104B89ED007AC3F800A0ABE7AFF3008028
:103E40009A9999999999F53FCDCCCCCCCCCCFC3FA3
:103E5000199803341898033420BCBE4CA49803343A
:103E6000B496033408980334000040403C96033471
:103E700017370034A09803343896033438B5044615
:103E80000025094B8361A369595921B904350C2DCB
:103E9000F9D1002038BD4B68002BF7D02046984759
:103EA0000028F3D0F6E700BFB48E033438B50446DB
:103EB0000025A369595921B904350C2DF9D10020E9
:103EC00038BD8B68002BF7D0204698470028F3D0E8
:103ED000F6E738B504460025A369595921B90435D8
:103EE0000C2DF9D1002038BDCB68002BF7D020462F
:103EF00098470028F3D0F6E72DE9F743DDF828804E
:103F00000E4691461C460546002870D000296ED00A
:103F1000002B6CD000F1080780220021384617F0F2
:103F2000D7FC0FCCC5E9006905F11C060FC60FCC04
:103F30000FC623683360AB6A3BB92E4817F092FB7B
:103F4000B424204603B0BDE8F083EB6A0BB92A48DD
:103F5000F4E72B6B0BB92948F0E76B6B0BB92848DA
:103F6000ECE7AB6B0BB92748E8E7B8F1000F03D0DB
:103F700098E80F0087E80F0028460B9900F038FDFD
:103F800004460028DDD1284605F14C0100F09AFCDA
:103F900004460028D5D12A6FB2F5286F0FD3B2F5A9
:103FA000A85F20D3B2F5285F1FD3B2F5A84F4FF01A
:103FB000080305D3144817F055FB1E24C1E701235D
:103FC000284601A98DF8043000F0C6F904460028FF
:103FD000B7D12846FFF752FF04460028B1D1284642
:103FE00000F014FDADE70223EAE70423E8E701242B
:103FF000A7E700BFBA070234F20702342A080234E6
:10400000620802349E080234DA08023438B50546E4
:1040100050B1FFF74BFF044620B9014688222846DD
:1040200017F056FC204638BD0124FBE700000000D5
:1040300073B50646002800F09C8000F08BFC002839
:1040400071D1304600F0DEFC054600F10C0130462F
:1040500000F022F9002866D12946304600F05BF9CD
:10406000002860D1304605F1140100F0A9F90028BC
:1040700059D1EB6C002B4BD12B6D002B55D195F802
:104080005C3033B1304605F15C0100F057FA00288E
:1040900049D195F8643033B1304605F1640100F040
:1040A00082FA00283FD195F81832002B49D195F8B3
:1040B0002832002B51D1336906F108040BB1736922
:1040C00023B905F13C030FCB84E80F0021463046AD
:1040D00000F0F0F938BB304605F5147100F066FCCD
:1040E00008BB95F96930B0EE000B01EE103ABAEE5C
:1040F000EF1AB7EEC11A019019F056FE9FED1E7B24
:1041000020EE070BBCEEC00B019885ED1B0A0AE000
:1041100095F86830002BAFD1304605F14C0100F026
:10412000DFFB0028A8D002B070BD95F86830002BE6
:10413000A5D1304605F1500100F0EFFB00289ED0DC
:10414000F1E795F87030002BB1D1304605F50671D6
:1041500000F04EFA0028AAD0E5E795F87030002B61
:10416000A9D1304605F50A7100F0DCFA0028A2D08A
:10417000D9E70120D7E700BF0000000000004C4055
:1041800038B5054650B100F043FE04462846FFF717
:10419000A0FE002C08BF0446204638BD0124FBE7E2
:1041A00000F03CBC00F0E2BB00F0E6BB00F0E8BB76
:1041B00010B5D0E9044060430D4C0229247804FB7B
:1041C00004F4B0FBF4F010D0012A14BF0422022240
:1041D00082429FBFB0FBF2F0420802EB0323B3FB25
:1041E000F0F08CBF0020C0B210BD0122F0E700BF8C
:1041F000768F0334F0B50B46064600240C2793E86F
:10420000070007FB04650134032C85E80700F6D19D
:10421000F0BD70B506460C4601252346EAB20121E1
:104220003068013509F0D6FB042D04F10404F4D103
:1042300070BD00000000000007EE101A05EE100A25
:104240009FED0F4BB8EEC77B06EE102AB8EEC55BAC
:1042500027EE047B9FED0C4BB8EEC66BA5EE047BFE
:104260009FED0B5BA6EE057BFCEEC77B82B0CDED30
:10427000017A9DF8040002B0704700BFAFF30080E0
:1042800062105839B4C8E23F894160E5D022D33F7B
:10429000C976BE9F1A2FBD3FF0B5044687B00028EF
:1042A00037D0002935D08F78072F32D8CE78072E17
:1042B0002FD80D79072D2CD84879072829D80B78C5
:1042C00013B14A78042A07D10121206808F06AFD59
:1042D00000B10B2007B0F0BD022A18D0511E4B428E
:1042E0004B41032A4FEA430308BF062305900121EF
:1042F000206801AACDE90337CDE9016508F0E0FCAB
:104300000028E6D10121206808F034FDE0E704230D
:10431000ECE70A20DEE710B50446D8B1D1B14A680F
:10432000072A17D840F6FE708B68834212D80978A6
:10433000206821B9012108F089FD28B103E001219D
:1043400008F048FD08B1152010BD0121206808F0D3
:104350006FFDF2E71420F7E737B50C46054650B37A
:1043600049B30B78013B072B25D8DFE803F017048E
:1043700024112424241408230222CDE9003201212F
:104380006A46286808F094FA58B11F2003B030BD7F
:1043900010230422F1E718230622EEE700231A4631
:1043A000EBE70121286808F0C1FA0028EDD1227856
:1043B000024B1A70EAE71E20E8E700BF768F03344D
:1043C0002DE9F043054685B0002871D000296FD053
:1043D0004B68B3F5C57F6BD8D1F80890B9F5C57FA8
:1043E00066D8D1F80C80B8F5C57F61D8D1F810E057
:1043F000BEF5C57F5CD8D1F814C0BCF5C57F57D8D1
:104400008F69B7F5C57F53D8CE69B6F5C57F4FD84C
:104410000C6AB4F5C57F4BD84A6AB2F5C57F47D858
:104420000978006821B9012109F0A8F9C0B336E084
:10443000190164231201B1FBF3F1B2FBF3F24FEA6D
:1044400009194FEA08184FEA0E1E4FEA0C1C3F01EB
:1044500036012401B9FBF3F9B8FBF3F8BEFBF3FE18
:10446000BCFBF3FCB7FBF3F7B6FBF3F6B4FBF3F4DA
:104470008DF804108DF80C20012101AA8DF805900B
:104480008DF806808DF807E08DF808C08DF809706A
:104490008DF80A608DF80B4009F0D6F818B1292084
:1044A00005B0BDE8F0830121286809F04FF9BDE7A8
:1044B0002820F5E77FB5044600283AD0002938D0F7
:1044C00040F6FE720D68954233D84868904230D865
:1044D0008B6893422DD8CA6840F6FA71161F8E4237
:1044E00027D8032B25D9266FE918B14221D8666F4A
:1044F0008118B1421DD810490978B0FBF1F0B2FB28
:10450000F1F2B5FBF1F5B3FBF1F30090029201215A
:104510006A4620680195039308F07CFF10B13320B0
:1045200004B070BD0121206808F0FEFF0028F7D01C
:10453000F5E73220F4E700BF768F033410B5044668
:10454000A8B1A1B14A78072A11D80B7800680121D7
:104550001BB908F0C9FC20B102E008F085FC08B1E5
:104560003D2010BD0121206808F0A6FCF3E73C20A7
:10457000F7E738B50D46044698B191B101210068BE
:1045800008F0DCFC28700121206808F0C5FC687088
:10459000012120682A1D08F0F7FC002818BF3D20E3
:1045A00038BD3C20FCE713B50446F0B1E9B10B7807
:1045B000006823B9012108F0AFFE78B10DE04B7817
:1045C00001AA8DF804308B788DF80530CB78012165
:1045D0008DF8063008F066FE10B1472002B010BD1D
:1045E0000121206808F080FEE7E74620F6E700009A
:1045F0002DE9F74F0546002800F08B80002900F0D8
:1046000088804A68464B9A4200F28380D1F808803D
:1046100098457ED8CF689F427BD80B78066833B91F
:104620000121304608F0F8FF00285BD059E0002453
:10463000104639A3D3E90023214650EACF11FDF7F4
:10464000B5FA234682468B462246BAF5807F7BF137
:10465000000003F1010148D20024002A08BF1346DC
:10466000404621468DF8003050EACF112AA3D3E905
:1046700000238DF801A0FDF799FA2346804689466C
:104680002246B8F5807F79F1000003F1010131D2B3
:104690000024002A08BF1346384621468DF8023010
:1046A00050EACF111CA3D3E900238DF80380FDF756
:1046B0007DFA2346804689462246B8F5807F79F107
:1046C000000003F101011AD2002A08BF134601219C
:1046D0006A4630468DF804308DF8058008F03CFFBE
:1046E00090B1512003B0BDE8F08F5AEA5F0B0B4642
:1046F0000122AAE758EA5F090B460122C1E758EAFE
:104700005F090B460122D8E70121286808F06CFFF9
:104710008AE75020E6E700BF00E1F5050000000051
:1047200000105E5F70B5054688B00C461A22002165
:1047300001A817F0CDF86DB164B123463A483B4A61
:1047400004F1240659680144914203D89968014450
:10475000914201D95A205FE0D96801449142F9D8C9
:104760000C33B342EED123782E6833B901213046A1
:1047700008F080FD00284FD04DE0606800232C4AEF
:10478000C117FDF7C3F9ADF80600A0680023284A59
:10479000C117FDF7BBF9ADF80800E0680023244A13
:1047A000C117FDF7B3F9ADF80A0020690023204ACC
:1047B000C117FDF7ABF9ADF80E00606900231C4A84
:1047C000C117FDF7A3F9ADF81000A0690023184A3E
:1047D000C117FDF79BF9ADF81200E0690023144AF8
:1047E000C117FDF793F9ADF81600206A0023104AAF
:1047F000C117FDF78BF9ADF81800606A0C4A002369
:10480000C117FDF783F90121ADF81A0001AA30465E
:1048100008F0D6FB10B15B2008B070BD01212868FC
:1048200008F010FDA6E700BFC041C8178083902F95
:10483000E1F5050030B50C46054689B000283CD0AE
:1048400000293AD00121006809F098F9207001216F
:10485000286801AA09F0F0F8194BBDF906200020DC
:10486000A2FB03216260BDF90820A2FB0321A26024
:10487000BDF90A20A2FB0321E260BDF90E20A2FBD4
:1048800003212261BDF91020A2FB03216261BDF961
:104890001220A2FB0321A261BDF91620A2FB032175
:1048A000E261BDF91820A2FB03212262BDF91A20A2
:1048B000A2FB0323626209B030BD5A20FBE700BFB0
:1048C000E1F5050008B538B131B1836A13B140682C
:1048D000984718B9002008BD6E20FCE76F20FAE762
:1048E00008B540B139B1C36A1BB10968406898473F
:1048F00018B9002008BD7820FCE77920FAE708B550
:1049000038B131B1036B13B14068984718B9002032
:1049100008BD7820FCE77920FAE708B540B139B145
:10492000436B1BB109684068984718B9002008BD5F
:104930008220FCE78320FAE708B538B131B1836BF8
:1049400013B14068984718B9002008BD8220FCE7E1
:104950008320FAE708B538B1006809F035F9022874
:1049600014BF8C20002008BD0120FCE7036C01333C
:1049700003647047006C7047436C013343647047B5
:10498000836C01338364704708B568B1012906D090
:10499000022904D00020003818BF012008BD00689B
:1049A00008F062F9C0B2F6E70120F7E738B50D4626
:1049B000044608B9952038BD0029FBD00B78006863
:1049C000012153B908F02EF90028F3D16B78206843
:1049D00033B1022108F004F905E008F001F9F3E72A
:1049E000022108F01FF90028E4D10020E3E70000CD
:1049F00008B54FF41572024817F0F1F9002008BD10
:104A00000C9A0334004870470C9A03344FF4B07288
:104A10000021014816F05CBFAC9803342DE9F04F3B
:104A200005468DB028B9AA480DB0BDE8F04F16F084
:104A300019BE0068002800F0B480DFF8F092A54CA1
:104A400099F80030092B36D8DFE803F0053F4446DB
:104A5000484A87898B8D01226B46114608F0BAFFC0
:104A60000222012101AB286808F0B4FF03220121D2
:104A700002AB286808F0AEFF01210022009B284607
:104A8000FFF796FB0A460646019B84F87C00284601
:104A9000FFF78EFB0222074684F87D00029B284622
:104AA000FFF786FB3946024684F87E003046FFF762
:104AB000C3FB84F87F002378092B63D8DFE803F079
:104AC000747F848688558A8C8E9083492846FFF7A8
:104AD000A0FBF0E78149F9E78149F7E78149F5E76C
:104AE00001226B46114608F075FF0222012101AB3D
:104AF000286808F06FFF0322012102AB286808F044
:104B000069FF02210022009B2846FFF751FB01228A
:104B1000019B84F8B00007462846FFF749FB0A4688
:104B2000029B84F8B10006462846FFF741FB84F853
:104B3000B20095F86C300246042B02D06A4B1B7B06
:104B400023B93E44324484F8B320B4E731463846B2
:104B5000FFF772FB84F8B300ADE76449B6E7644938
:104B6000B4E76449B2E76449B0E700234022CDE9E5
:104B700003325022CDE907236022CDE905330993A2
:104B8000CDE90A234FF0010803AF5FFA88F63B46F0
:104B900032460121286808F0D7FB18B3574816F0B1
:104BA00061FD0DB0BDE8F08F00231022CDE9033385
:104BB000CDE90723CDE9053320220993E0E75049E9
:104BC00003A8FFF717FBDDE74E49F9E74E49F7E782
:104BD0004E49F5E74E49F3E74E49F1E74E49EFE715
:104BE0004E49EDE732460121286808F065FC06468B
:104BF00008B14B48D3E708F10108B8F1040F07F1F9
:104C00000C07C2D194F8588199F800B018F0050F3C
:104C10000CBF01230023D5F840A094F859715B45DF
:104C200008BFC4F8E4A017F0050F0CBF0623052346
:104C30009B457DD1C4F8ECA017F0060F0CBF0523EF
:104C400009239B451ED1D4F8ECE0BEF1000F19D02A
:104C5000344DC4E91DEA05F1780CBCE80F000FC51E
:104C6000BCE80F000FC5BCE80F000FC52846DCF8F4
:104C70000030342240F8483B002116F029FE002382
:104C8000C4E93B3348EA07035A070BD5D4F85C3133
:104C900053453FBF28F0040827F0040784F85881E3
:104CA00084F85971204B94F858111A7889F800202B
:104CB00022781A704B0703D494F859315F0761D5F5
:104CC000531CDBB2092A38BF1E46267069E700BFB5
:104CD00023090234AC9803342C99033438990334F3
:104CE00044990334509903340C9A03346099033483
:104CF0006C99033478990334849903343E0902345F
:104D0000B8300234AC300234A03002349430023473
:104D1000883002347C300234703002346430023423
:104D20006C090234E4980334748F0334758F0334B0
:104D300018F0060F14BF01230023BBEB830F7FF491
:104D40007BAFD4F8E4E0BEF1000F3FF475AF2F4D18
:104D5000C4E91BEA05F1780CBCE80F000FC5BCE8FC
:104D60000F000FC5BCE80F000FC52846DCF8003067
:104D7000342240F8483B002116F0AAFD0023C4E984
:104D8000393359E7092A36D8DFE802F005353535D9
:104D9000111D3535352A8D0734D4D80734D413F096
:104DA00002062BD111F0010F08BF09268DE7DA07A3
:104DB0002AD413F0020621D1CB0786D411F0020FBA
:104DC00018BF0126F0E713F0020617D1CF073FF511
:104DD0007CAF8D0716D413F0010F18BF1646E3E71A
:104DE000C8070DD489070DD4DA070DD413F0020FCC
:104DF00018BF0626D8E70132D6B266E7062664E772
:104E0000002662E7012660E705265EE7B0980334D6
:104E10002DE9F04700251C4C05272646A94604F13C
:104E20000408D4F8F4A0BAF1000F16D094F80431B5
:104E3000022B19D1D4F80021736F9A420DD8782231
:104E40004146D4F8FC0016F0CAFFD4F8F800D04769
:104E5000002818BF0546C4F8F490013F04F114047B
:104E6000DFD12846BDE8F087012B03D1D4F800211B
:104E7000F36EE2E7032BF0D1D4F80031F26E9342E7
:104E8000EBD8726F9342D9E7AC9803342DE9F04325
:104E900091469DF81CC09DF82050B0B1ABB11E4E9C
:104EA0004FF0000E34464FF00508006C099F074490
:104EB000D6F8F4205AB1B8F101080EF1010E06F14E
:104EC0001406F5D1AC20BDE8F0830120FBE71CF00F
:104ED000010F04D094F858612E4384F858611CF0F7
:104EE000020F1EBF94F859612E4384F85961042DB6
:104EF00004BF1E30C4F85C01142000FB0E40C0E962
:104F00003D19C0F8FC3080F804C180F80551C0F8A4
:104F100000710020D7E700BFAC980334024B00209B
:104F20001B6A0B60704700BF1C9E0334024B0020BD
:104F30005B6A0B60704700BF1C9E033408B5054BCD
:104F40009B6D13B10448984708B9002008BD832021
:104F5000FCE700BFB09D03346C9C0334021E18BFF5
:104F600001220821014809F001BC00BF000C0256D3
:104F7000021E18BF01224FF40071014809F0F6BB70
:104F80000008025600212DE9F04FA04C99B00546CB
:104F90004FF4A2722046CDE90311CDE90511CDE908
:104FA000071116F095FC20232380994BDFF894B26B
:104FB000DFF894A2DFF89482DFF89492954F964E32
:104FC0006360964B20469649C4F874B0C4F878A044
:104FD000C4F87C80C4F88090C4F88870C4F88C60F1
:104FE000C4F8903000F0E2FE002835D12B688C4ADE
:104FF0000BB16B6843B9936D844809A99847129B1C
:10500000874A2B60139B6B60294613687F4898473B
:1050100010BB4FF480700123CDE903031C2303A9C7
:105020008048059306F024FC0146A8B902227D4879
:1050300006F08EFD014678B92A23CDE907300690A7
:10504000784806AA019106F0CFFC28B901990131F0
:105050000329F5D1022064E000214FF4A2726B48CD
:10506000CDE90311CDE90511CDE9071116F030FCAA
:1050700020232380664B6A496360684B6348C4F809
:105080004031684BC4E949BAC4F81C31664BC4E9E5
:105090004B89C4F80831654BC4E94E76C4F80C312D
:1050A000634BC4F81031634BC4F81431624BC4F83D
:1050B000043101F007FA002839D12B680BB16B6875
:1050C00043B9574B51489B6D09A99847129B2B60D8
:1050D000139B6B60524B29461B684C48984730BB6A
:1050E0004FF400710123CDE903131C2303A94D489C
:1050F000059306F0BDFB0146C8B90222494806F0F7
:1051000027FD014698B92A23CDE907300690454886
:1051100006AA019106F068FC48B9019901310329FA
:10512000F5D1464B1870002019B0BDE8F08F002172
:105130004FF4A2723548CDE90311CDE90511CDE94F
:10514000071116F0C5FB342323803D4B3449C4E9D5
:105150003D37324B2D48C4F80031324BC4E939BADF
:10516000C4F8DC30304BC4E93B89C4F8C8302F4B5D
:10517000C4F8FC60C4F8CC302D4BC4F8D0302D4BB3
:10518000C4F8D4302C4BC4F8C43000F06FFC0028B5
:1051900039D12B68224C0BB16B683BB9A36D1B480E
:1051A00009A99847129B2B60139B6B6029462368C3
:1051B0001648984738BB0221236C1448984710BB07
:1051C0004FF400720123CDE903232C2303A91548D2
:1051D000059306F04DFB0146A8B90322114806F0DD
:1051E000B7FC044678B92B23CDE907300D4D069066
:1051F0002146284606AA06F0F7FB20B90134032C05
:10520000F6D101208DE76FF006008DE76C9C03342A
:10521000001BB70015A80134714F00345D4F0034F6
:10522000B09D0334109E0334D55400341D4F003418
:10523000195500342D4F00343D4F00345C9E03342B
:1052400099A600343DA40034ADA30034FDA400347D
:1052500035A5003470B5082588B0164C14220021FD
:1052600003A816F035FBC4F85C5AD4F85C3200266B
:105270000293029B0AF05EFC0423C4F85C3AD4F863
:105280005C32032403950125019303A90A48019B7D
:10529000CDE90456069408F023FF4FF40073074845
:1052A00003A9CDE904560393069408F019FF08B04A
:1052B00070BD00BF00800256000C02560008025666
:1052C00000487047109E03342DE9F0430026044641
:1052D00093B00DF130080D4617463146182240466E
:1052E000CDE9046602960696039616F0F1FA1422AA
:1052F000314607A80DF1080916F0EAFA5CB9214613
:105300004F4804AA06F05CFC00287CD06FF0040033
:1053100013B0BDE8F083CDE900984A482A46D0E9A9
:10532000000107AB00F00EFADDE90932134315D096
:105330002146434807AA07F0ADF90028E6D12146E7
:105340003F4807F04DFA0028E0D1DDE9023213436F
:1053500009D121463A4807F071FB0FE02146384851
:1053600007F07EFAEFE74A462146354807F0F8FA9B
:105370000028CBD12146324807F03EFB0028C5D19A
:10538000424621462E4807F07BFB2D4E0028BDD11A
:105390002146304607F002FC0028B7D12B69214690
:1053A0003046002B31D008F0A9FA0028AED16B6945
:1053B000002B2DDA022C0FD1DFF88C80D8F80030CA
:1053C00053B921461E4808F0E9FA00289ED1D8F8C2
:1053D00000300133C8F800300023EA6804932B68DA
:1053E000264453430F3323F00F03AA6805937379C0
:1053F0000692C3B92146124804AA06F0E1FB002830
:1054000084D1059B3B60002082E708F09FFACCE73F
:1054100021460B4804D007F0E3FB0028CAD075E70B
:1054200007F000FCF9E72146054808F0F1F90028EB
:105430007FF46CAF2146059A014808F0B7F9DEE722
:10544000109E0334609E0334609C033402280B4694
:1054500013B515D8014600920E48002206F04EFC06
:1054600088B90D4C236813B1002002B010BD0B4B5E
:105470000B489B68984748B9236801332360F3E7DA
:105480006FF00100F1E76FF00300EEE76FF004004A
:10549000EBE700BF109E0334649C0334B09D0334DB
:1054A0006C9C0334084B10B59B6C044633B1014629
:1054B0000648984728B9064B1C6210BD6FF00A00D9
:1054C000FBE76FF00400F8E7B09D03346C9C0334F5
:1054D0001C9E0334084608B5FFF7E4FF002814BFFC
:1054E0007920002008BD0000084B10B5DB6C044695
:1054F00033B101460648984728B9064B5C6210BD97
:105500006FF00A00FBE76FF00400F8E7B09D03348A
:105510006C9C03341C9E0334084608B5FFF7E4FF77
:10552000002814BF8320002008BD000008B5074BE9
:1055300001469B6D33B106489847002818BF6FF0AD
:10554000040008BD6FF00A00FBE700BFB09D033404
:105550006C9C033470B5044694B03C22002105A82D
:1055600016F0B6F92368224E009363680193A3688E
:105570000293E3680393636904933368002B35D186
:105580001C4D1D4B28462B6015F0C5F818B16FF067
:10559000030014B070BD284606F044F90028F6D187
:1055A000FFF758FE6846FFF7EDFC10B16FF00600FC
:1055B000EFE705A8FFF7BAFF0530F7D01298FFF71D
:1055C00093FF0530F2D01098FFF76CFF0530EDD057
:1055D000009B0A4D2360019B63600FCC0FC53368AD
:1055E00094E8030085E80300013333600020D0E72E
:1055F000689C0334109E033400200058609E0334DE
:10560000034BDB680BB1034818471846704700BFCF
:10561000B09D03346C9C0334054B10B51B690C46DC
:105620000BB104489847204614F07CFC10BD00BF25
:10563000B09D03346C9C0334054B10B55B690C467C
:105640000BB104489847204614F0F6FB10BD00BF8C
:10565000B09D03346C9C0334042330B51B4C85B0DF
:10566000C4F87C3AD4F87C2204F580550392039A5E
:10567000C4F8BC3AD4F8BC2207210292029A302026
:10568000C4F83C3A0022C5F83C3205F05DFF3020FA
:1056900005F0B8FF4023C4F87C3AD4F87C220721F7
:1056A0000192019AC4F8BC3AD4F8BC222F2000928F
:1056B000009AC4F83C3A0022C5F83C3205F044FF99
:1056C0002F2005B0BDE8304005F09CBF0080025699
:1056D00008B5B2EE007A0123F6EE006AD0ED007A4A
:1056E000F4EEC77AF1EE10FA08DA013B072B1AD86C
:1056F000DFE803F01F0A190F1919191467EEA67ACB
:105700005B00C0ED007AE9E700290CBF0220082009
:1057100008BD00290CBF04201020F9E700290CBFA8
:1057200006201820F4E77721034B044A044815F0BB
:1057300087F80020ECE700BF95010234C430023442
:105740009D090234F7B51446DDE908566768926989
:1057500006EE907A07EE100A07EE901AB8EE665A37
:10576000002A40F08E80D4ED006AB8EE476AF8EE69
:10577000664AF8EE676A86EE244AC6EE855AB4EEAB
:10578000654AF1EE10FA48BFF0EE445AB7EE004A0F
:10579000F4EEC45AF1EE10FA05DA4F214F4B504A9D
:1057A000504815F04DF89FED504AF4EEC45AF1EE12
:1057B00010FA03D450214D4B494AF1E724EEA54A93
:1057C000B4EEC46A65EE255AF1EE10FAF4EEE56A1D
:1057D000CCBFBCEEC46ABCEEC66AF1EE10FA01465C
:1057E00016EE102ACCBFFCEEE56AFCEEE66A01314B
:1057F000891A4908596017EE901A16EE902A83ED1F
:10580000036AC3ED026AB8EE466AF8EE666A0131D1
:10581000891A0022C6EE245A86EE857A4908196054
:105820001A61002168468DED017ACDED005AFFF72F
:105830004FFF0121686001A8FFF74AFF9FED2C7A16
:10584000DDED007A67EE877AFCEEE77A286017EEE6
:10585000903A2068C6ED037ADDED017A67EE877A2B
:10586000FCEEE77A17EE902A2249C6ED027AB1FBE8
:10587000F3F3B1FBF2F1C6E900707361316103B07B
:10588000F0BD012A0CD1D4ED006AB8EE477AF8EEEB
:10589000666AC7EE265AF8EE677A87EE857AC0E721
:1058A000022A06D1F8EE677A87EE857AF0EE475A3B
:1058B000B7E7E16994ED007A07EE901AB8EE477AFF
:1058C000F8EE677A606A226A5860A06AC7EE875A63
:1058D000D96007EE902A9A601860DCE7090A023462
:1058E000EF3002349D09023400008042140A023471
:1058F00000000046FFFF7F007047083000F0F2BE56
:10590000083000F0FBBF000008B50B46B8B1B1B1DC
:1059100018460C4916F04DFA4FF420624FF42261FC
:1059200002844FF4F3620346C0E909120020064ADC
:105930005863C3E90B0248F2F2129A6308BD6FF094
:105940000100FBE71F0A023440190100032928BFA8
:105950000321083000F0B8BF083000F089BF0830DC
:1059600000F062BF083000F00DBF083000F0D2BE7A
:1059700008B53030FEF704FC002814BF6FF00300B8
:10598000002008BD10B504463030FEF73FFB10B1D3
:105990006FF0040010BD04F1080000F09AFE00282A
:1059A000F8D0F5E730B587B002AB044610220021ED
:1059B000184615F08DFF0F4A04F13005CDE90002BD
:1059C00004F1B80300222846D4F8DC10FEF794FA5C
:1059D00048B92846FEF72CFB40B904F1080000F056
:1059E0005BFE07B030BD6FF00400FAE76FF0030014
:1059F000F7E700BF0C31023438B5D1E90023B2F526
:105A0000226F05460C4602D06FF0010038BDB3F599
:105A1000F36FF9D10969FFF799FF0028F4D1062146
:105A2000E26805F1080000F017FE002818BF6FF0CB
:105A30000400EBE7012910B507D002290FD099B96E
:105A4000BDE810403030FEF7B1BB00F13004204615
:105A5000FEF7A8FB2046BDE81040FEF7A1BB3030A2
:105A6000BDE81040FEF7A0BB10BD000073B50446B2
:105A700003880D460382D0F8E43008348360D0F800
:105A8000E830C360D0F8F430C361D0F8F0308361FF
:105A9000D0F8EC304361D0F8FC3000209847D4F8BF
:105AA000F03064209847D4F8F83000209847D4F8B4
:105AB000F03064209847D4F8F43001209847D4F8A7
:105AC000F03064209847D4F8F83001209847D4F893
:105AD000F030642098472146204600F0A1FD06469C
:105AE00020B16FF00404204602B070BD204601A929
:105AF00000F0F8FD04460028F3D1019B4822002B5A
:105B000008BF0446314605F1180018BF6FF00604BF
:105B100015F0DEFE0E4B2B600E4BAB600E4B6B6038
:105B20000E4BEB600E4B2B610E4B6B610E4BEB6122
:105B30000E4BAB640E4BEB640E4B2B640E4B6B6445
:105B40000E4BEB620E4BAB650E4BEB65CBE700BF2C
:105B5000F9590034A559003485590034715900347D
:105B6000355A0034F9580034FB5800346B5900346E
:105B7000655900345F590034595900344D59003487
:105B80000959003401590034042337B51446D0F8BC
:105B900080500DEB03020088A84708B9019B2360E1
:105BA00003B030BDD0F884300846184710B4846F75
:105BB0000123A44630F8080C5DF8044B604737B564
:105BC00002231446856F01AA30F8080CA84710B9C3
:105BD000BDF80430238003B030BD0838FFF7D4BFD0
:105BE00013B50123446F8DF8072030F8080C0DF130
:105BF0000702A04702B010BD13B50223446FADF8F1
:105C0000062030F8080C0DF10602A04702B010BDC6
:105C1000042313B5446F019230F8080C0DEB030216
:105C2000A04702B010BD2DE9F04780460D4616464C
:105C30001C4614B92046BDE8F087802CA14628BF39
:105C40004FF080091FFA89FA534632462946D8F8A0
:105C5000747038F8080CB8470028ECD1AA44A4EBBB
:105C600009041FFA8AF54E44E3E7D0F8803008466D
:105C70001847704740B139B14FF449724FF430734F
:105C80000020C1E9092370476FF001007047032924
:105C90000DD8DFE801F00206080A0021083001F003
:105CA0000FBC0121FAE70221F8E70321F6E76FF0C4
:105CB0000300704708B5083001F031F9002818BF1B
